{
  "_format": "hh-sol-artifact-1",
  "contractName": "WagmiTable",
  "sourceName": "contracts/WagmiTable.sol",
  "abi": [
    {
      "inputs": [
        {
          "internalType": "uint256",
          "name": "_initialSupply",
          "type": "uint256"
        },
        {
          "internalType": "uint256",
          "name": "_defaultPrice",
          "type": "uint256"
        },
        {
          "internalType": "string",
          "name": "_cid",
          "type": "string"
        },
        {
          "internalType": "uint256",
          "name": "_time",
          "type": "uint256"
        },
        {
          "internalType": "address",
          "name": "_aaron",
          "type": "address"
        }
      ],
      "stateMutability": "nonpayable",
      "type": "constructor"
    },
    {
      "anonymous": false,
      "inputs": [
        {
          "indexed": true,
          "internalType": "address",
          "name": "owner",
          "type": "address"
        },
        {
          "indexed": true,
          "internalType": "address",
          "name": "approved",
          "type": "address"
        },
        {
          "indexed": true,
          "internalType": "uint256",
          "name": "tokenId",
          "type": "uint256"
        }
      ],
      "name": "Approval",
      "type": "event"
    },
    {
      "anonymous": false,
      "inputs": [
        {
          "indexed": true,
          "internalType": "address",
          "name": "owner",
          "type": "address"
        },
        {
          "indexed": true,
          "internalType": "address",
          "name": "operator",
          "type": "address"
        },
        {
          "indexed": false,
          "internalType": "bool",
          "name": "approved",
          "type": "bool"
        }
      ],
      "name": "ApprovalForAll",
      "type": "event"
    },
    {
      "anonymous": false,
      "inputs": [
        {
          "indexed": true,
          "internalType": "string",
          "name": "baseURI",
          "type": "string"
        }
      ],
      "name": "MetadataURIChanged",
      "type": "event"
    },
    {
      "anonymous": false,
      "inputs": [
        {
          "indexed": true,
          "internalType": "address",
          "name": "previousOwner",
          "type": "address"
        },
        {
          "indexed": true,
          "internalType": "address",
          "name": "newOwner",
          "type": "address"
        }
      ],
      "name": "OwnershipTransferred",
      "type": "event"
    },
    {
      "anonymous": false,
      "inputs": [
        {
          "indexed": false,
          "internalType": "uint256",
          "name": "time",
          "type": "uint256"
        }
      ],
      "name": "SaleStartChanged",
      "type": "event"
    },
    {
      "anonymous": false,
      "inputs": [
        {
          "indexed": true,
          "internalType": "uint256",
          "name": "supply",
          "type": "uint256"
        }
      ],
      "name": "SupplyChanged",
      "type": "event"
    },
    {
      "anonymous": false,
      "inputs": [
        {
          "indexed": true,
          "internalType": "address",
          "name": "from",
          "type": "address"
        },
        {
          "indexed": true,
          "internalType": "address",
          "name": "to",
          "type": "address"
        },
        {
          "indexed": true,
          "internalType": "uint256",
          "name": "tokenId",
          "type": "uint256"
        }
      ],
      "name": "Transfer",
      "type": "event"
    },
    {
      "inputs": [
        {
          "internalType": "string",
          "name": "_cid",
          "type": "string"
        }
      ],
      "name": "addToken",
      "outputs": [],
      "stateMutability": "nonpayable",
      "type": "function"
    },
    {
      "inputs": [
        {
          "internalType": "string",
          "name": "_cid",
          "type": "string"
        },
        {
          "internalType": "uint256",
          "name": "_count",
          "type": "uint256"
        }
      ],
      "name": "addTokens",
      "outputs": [],
      "stateMutability": "nonpayable",
      "type": "function"
    },
    {
      "inputs": [
        {
          "internalType": "address",
          "name": "to",
          "type": "address"
        },
        {
          "internalType": "uint256",
          "name": "tokenId",
          "type": "uint256"
        }
      ],
      "name": "approve",
      "outputs": [],
      "stateMutability": "nonpayable",
      "type": "function"
    },
    {
      "inputs": [],
      "name": "availableTokenCount",
      "outputs": [
        {
          "internalType": "uint256",
          "name": "",
          "type": "uint256"
        }
      ],
      "stateMutability": "view",
      "type": "function"
    },
    {
      "inputs": [
        {
          "internalType": "address",
          "name": "owner",
          "type": "address"
        }
      ],
      "name": "balanceOf",
      "outputs": [
        {
          "internalType": "uint256",
          "name": "",
          "type": "uint256"
        }
      ],
      "stateMutability": "view",
      "type": "function"
    },
    {
      "inputs": [],
      "name": "cid",
      "outputs": [
        {
          "internalType": "string",
          "name": "",
          "type": "string"
        }
      ],
      "stateMutability": "view",
      "type": "function"
    },
    {
      "inputs": [],
      "name": "defaultPrice",
      "outputs": [
        {
          "internalType": "uint256",
          "name": "",
          "type": "uint256"
        }
      ],
      "stateMutability": "view",
      "type": "function"
    },
    {
      "inputs": [],
      "name": "freeze",
      "outputs": [],
      "stateMutability": "nonpayable",
      "type": "function"
    },
    {
      "inputs": [],
      "name": "frozen",
      "outputs": [
        {
          "internalType": "bool",
          "name": "",
          "type": "bool"
        }
      ],
      "stateMutability": "view",
      "type": "function"
    },
    {
      "inputs": [
        {
          "internalType": "uint256",
          "name": "tokenId",
          "type": "uint256"
        }
      ],
      "name": "getApproved",
      "outputs": [
        {
          "internalType": "address",
          "name": "",
          "type": "address"
        }
      ],
      "stateMutability": "view",
      "type": "function"
    },
    {
      "inputs": [
        {
          "internalType": "address",
          "name": "owner",
          "type": "address"
        },
        {
          "internalType": "address",
          "name": "operator",
          "type": "address"
        }
      ],
      "name": "isApprovedForAll",
      "outputs": [
        {
          "internalType": "bool",
          "name": "",
          "type": "bool"
        }
      ],
      "stateMutability": "view",
      "type": "function"
    },
    {
      "inputs": [
        {
          "internalType": "uint256",
          "name": "_tokenId",
          "type": "uint256"
        },
        {
          "internalType": "address",
          "name": "_to",
          "type": "address"
        }
      ],
      "name": "mint",
      "outputs": [],
      "stateMutability": "payable",
      "type": "function"
    },
    {
      "inputs": [
        {
          "internalType": "string",
          "name": "_cid",
          "type": "string"
        },
        {
          "internalType": "address",
          "name": "_to",
          "type": "address"
        }
      ],
      "name": "mintAdditionalToken",
      "outputs": [],
      "stateMutability": "nonpayable",
      "type": "function"
    },
    {
      "inputs": [
        {
          "internalType": "string",
          "name": "_cid",
          "type": "string"
        },
        {
          "internalType": "uint256",
          "name": "_count",
          "type": "uint256"
        },
        {
          "internalType": "address",
          "name": "_to",
          "type": "address"
        }
      ],
      "name": "mintAdditionalTokens",
      "outputs": [],
      "stateMutability": "nonpayable",
      "type": "function"
    },
    {
      "inputs": [],
      "name": "name",
      "outputs": [
        {
          "internalType": "string",
          "name": "",
          "type": "string"
        }
      ],
      "stateMutability": "view",
      "type": "function"
    },
    {
      "inputs": [],
      "name": "owner",
      "outputs": [
        {
          "internalType": "address",
          "name": "",
          "type": "address"
        }
      ],
      "stateMutability": "view",
      "type": "function"
    },
    {
      "inputs": [
        {
          "internalType": "uint256",
          "name": "tokenId",
          "type": "uint256"
        }
      ],
      "name": "ownerOf",
      "outputs": [
        {
          "internalType": "address",
          "name": "",
          "type": "address"
        }
      ],
      "stateMutability": "view",
      "type": "function"
    },
    {
      "inputs": [
        {
          "internalType": "uint256",
          "name": "",
          "type": "uint256"
        }
      ],
      "name": "priceForToken",
      "outputs": [
        {
          "internalType": "uint256",
          "name": "",
          "type": "uint256"
        }
      ],
      "stateMutability": "view",
      "type": "function"
    },
    {
      "inputs": [],
      "name": "renounceOwnership",
      "outputs": [],
      "stateMutability": "nonpayable",
      "type": "function"
    },
    {
      "inputs": [
        {
          "internalType": "address",
          "name": "from",
          "type": "address"
        },
        {
          "internalType": "address",
          "name": "to",
          "type": "address"
        },
        {
          "internalType": "uint256",
          "name": "tokenId",
          "type": "uint256"
        }
      ],
      "name": "safeTransferFrom",
      "outputs": [],
      "stateMutability": "nonpayable",
      "type": "function"
    },
    {
      "inputs": [
        {
          "internalType": "address",
          "name": "from",
          "type": "address"
        },
        {
          "internalType": "address",
          "name": "to",
          "type": "address"
        },
        {
          "internalType": "uint256",
          "name": "tokenId",
          "type": "uint256"
        },
        {
          "internalType": "bytes",
          "name": "_data",
          "type": "bytes"
        }
      ],
      "name": "safeTransferFrom",
      "outputs": [],
      "stateMutability": "nonpayable",
      "type": "function"
    },
    {
      "inputs": [],
      "name": "saleStart",
      "outputs": [
        {
          "internalType": "uint256",
          "name": "",
          "type": "uint256"
        }
      ],
      "stateMutability": "view",
      "type": "function"
    },
    {
      "inputs": [],
      "name": "saleStarted",
      "outputs": [
        {
          "internalType": "bool",
          "name": "",
          "type": "bool"
        }
      ],
      "stateMutability": "view",
      "type": "function"
    },
    {
      "inputs": [
        {
          "internalType": "address",
          "name": "operator",
          "type": "address"
        },
        {
          "internalType": "bool",
          "name": "approved",
          "type": "bool"
        }
      ],
      "name": "setApprovalForAll",
      "outputs": [],
      "stateMutability": "nonpayable",
      "type": "function"
    },
    {
      "inputs": [
        {
          "internalType": "string",
          "name": "_cid",
          "type": "string"
        }
      ],
      "name": "setCID",
      "outputs": [],
      "stateMutability": "nonpayable",
      "type": "function"
    },
    {
      "inputs": [
        {
          "internalType": "uint256",
          "name": "time",
          "type": "uint256"
        }
      ],
      "name": "setSaleStart",
      "outputs": [],
      "stateMutability": "nonpayable",
      "type": "function"
    },
    {
      "inputs": [
        {
          "internalType": "uint256",
          "name": "_tokenId",
          "type": "uint256"
        },
        {
          "internalType": "uint256",
          "name": "_price",
          "type": "uint256"
        }
      ],
      "name": "setTokenPrice",
      "outputs": [],
      "stateMutability": "nonpayable",
      "type": "function"
    },
    {
      "inputs": [
        {
          "internalType": "uint256[]",
          "name": "_tokenIds",
          "type": "uint256[]"
        },
        {
          "internalType": "uint256",
          "name": "_price",
          "type": "uint256"
        }
      ],
      "name": "setTokenPrices",
      "outputs": [],
      "stateMutability": "nonpayable",
      "type": "function"
    },
    {
      "inputs": [
        {
          "internalType": "bytes4",
          "name": "interfaceId",
          "type": "bytes4"
        }
      ],
      "name": "supportsInterface",
      "outputs": [
        {
          "internalType": "bool",
          "name": "",
          "type": "bool"
        }
      ],
      "stateMutability": "view",
      "type": "function"
    },
    {
      "inputs": [],
      "name": "symbol",
      "outputs": [
        {
          "internalType": "string",
          "name": "",
          "type": "string"
        }
      ],
      "stateMutability": "view",
      "type": "function"
    },
    {
      "inputs": [],
      "name": "tokenCount",
      "outputs": [
        {
          "internalType": "uint256",
          "name": "",
          "type": "uint256"
        }
      ],
      "stateMutability": "view",
      "type": "function"
    },
    {
      "inputs": [
        {
          "internalType": "uint256",
          "name": "tokenId",
          "type": "uint256"
        }
      ],
      "name": "tokenURI",
      "outputs": [
        {
          "internalType": "string",
          "name": "",
          "type": "string"
        }
      ],
      "stateMutability": "view",
      "type": "function"
    },
    {
      "inputs": [],
      "name": "totalSupply",
      "outputs": [
        {
          "internalType": "uint256",
          "name": "",
          "type": "uint256"
        }
      ],
      "stateMutability": "view",
      "type": "function"
    },
    {
      "inputs": [
        {
          "internalType": "address",
          "name": "from",
          "type": "address"
        },
        {
          "internalType": "address",
          "name": "to",
          "type": "address"
        },
        {
          "internalType": "uint256",
          "name": "tokenId",
          "type": "uint256"
        }
      ],
      "name": "transferFrom",
      "outputs": [],
      "stateMutability": "nonpayable",
      "type": "function"
    },
    {
      "inputs": [
        {
          "internalType": "address",
          "name": "newOwner",
          "type": "address"
        }
      ],
      "name": "transferOwnership",
      "outputs": [],
      "stateMutability": "nonpayable",
      "type": "function"
    },
    {
      "inputs": [],
      "name": "withdraw",
      "outputs": [],
      "stateMutability": "nonpayable",
      "type": "function"
    }
  ],
  "bytecode": "0x60806040523480156200001157600080fd5b5060405162004f9538038062004f95833981810160405281019062000037919062000651565b8184846040518060400160405280600a81526020017f5761676d695461626c65000000000000000000000000000000000000000000008152506040518060400160405280600281526020017f57540000000000000000000000000000000000000000000000000000000000008152508980600181905550508160029080519060200190620000c792919062000501565b508060039080519060200190620000e092919062000501565b505050620000f4816200014360201b60201c565b506200011562000109620001b260201b60201c565b620001ba60201b60201c565b80600a819055505080600c8190555050620001388160006200028060201b60201c565b505050505062000bcb565b80600890805190602001906200015b92919062000501565b506200016c6200046660201b60201c565b6040516200017b919062000823565b60405180910390207f7d54a9964a6e80cd8847f2d2f9089adad79dfe2945af7128f5b673e67c319d2360405160405180910390a250565b600033905090565b6000600960009054906101000a900473ffffffffffffffffffffffffffffffffffffffff16905081600960006101000a81548173ffffffffffffffffffffffffffffffffffffffff021916908373ffffffffffffffffffffffffffffffffffffffff1602179055508173ffffffffffffffffffffffffffffffffffffffff168173ffffffffffffffffffffffffffffffffffffffff167f8be0079c531659141344cd1fd0a4f28419497f9722a3daafe3b4186f6b6457e060405160405180910390a35050565b600073ffffffffffffffffffffffffffffffffffffffff168273ffffffffffffffffffffffffffffffffffffffff161415620002f3576040517f08c379a0000000000000000000000000000000000000000000000000000000008152600401620002ea9062000884565b60405180910390fd5b62000304816200049060201b60201c565b1562000347576040517f08c379a00000000000000000000000000000000000000000000000000000000081526004016200033e9062000862565b60405180910390fd5b6200035b60008383620004fc60201b60201c565b6001600560008473ffffffffffffffffffffffffffffffffffffffff1673ffffffffffffffffffffffffffffffffffffffff1681526020019081526020016000206000828254620003ad919062000941565b92505081905550816004600083815260200190815260200160002060006101000a81548173ffffffffffffffffffffffffffffffffffffffff021916908373ffffffffffffffffffffffffffffffffffffffff160217905550808273ffffffffffffffffffffffffffffffffffffffff16600073ffffffffffffffffffffffffffffffffffffffff167fddf252ad1be2c89b69c2b068fc378daa952ba7f163c4a11628f55a4df523b3ef60405160405180910390a45050565b606060086040516020016200047c91906200083c565b604051602081830303815290604052905090565b60008073ffffffffffffffffffffffffffffffffffffffff166004600084815260200190815260200160002060009054906101000a900473ffffffffffffffffffffffffffffffffffffffff1673ffffffffffffffffffffffffffffffffffffffff1614159050919050565b505050565b8280546200050f9062000a12565b90600052602060002090601f0160209004810192826200053357600085556200057f565b82601f106200054e57805160ff19168380011785556200057f565b828001600101855582156200057f579182015b828111156200057e57825182559160200191906001019062000561565b5b5090506200058e919062000592565b5090565b5b80821115620005ad57600081600090555060010162000593565b5090565b6000620005c8620005c284620008cf565b620008a6565b905082815260208101848484011115620005e157600080fd5b620005ee848285620009dc565b509392505050565b600081519050620006078162000b97565b92915050565b600082601f8301126200061f57600080fd5b815162000631848260208601620005b1565b91505092915050565b6000815190506200064b8162000bb1565b92915050565b600080600080600060a086880312156200066a57600080fd5b60006200067a888289016200063a565b95505060206200068d888289016200063a565b945050604086015167ffffffffffffffff811115620006ab57600080fd5b620006b9888289016200060d565b9350506060620006cc888289016200063a565b9250506080620006df88828901620005f6565b9150509295509295909350565b6000620006f9826200091a565b62000705818562000936565b935062000717818560208601620009dc565b80840191505092915050565b60008154620007328162000a12565b6200073e818662000936565b945060018216600081146200075c57600181146200076e57620007a5565b60ff19831686528186019350620007a5565b620007798562000905565b60005b838110156200079d578154818901526001820191506020810190506200077c565b838801955050505b50505092915050565b6000620007bd601c8362000925565b9150620007ca8262000b1c565b602082019050919050565b6000620007e460078362000936565b9150620007f18262000b45565b600782019050919050565b60006200080b60208362000925565b9150620008188262000b6e565b602082019050919050565b6000620008318284620006ec565b915081905092915050565b60006200084982620007d5565b915062000857828462000723565b915081905092915050565b600060208201905081810360008301526200087d81620007ae565b9050919050565b600060208201905081810360008301526200089f81620007fc565b9050919050565b6000620008b2620008c5565b9050620008c0828262000a48565b919050565b6000604051905090565b600067ffffffffffffffff821115620008ed57620008ec62000adc565b5b620008f88262000b0b565b9050602081019050919050565b60008190508160005260206000209050919050565b600081519050919050565b600082825260208201905092915050565b600081905092915050565b60006200094e82620009d2565b91506200095b83620009d2565b9250827fffffffffffffffffffffffffffffffffffffffffffffffffffffffffffffffff0382111562000993576200099262000a7e565b5b828201905092915050565b6000620009ab82620009b2565b9050919050565b600073ffffffffffffffffffffffffffffffffffffffff82169050919050565b6000819050919050565b60005b83811015620009fc578082015181840152602081019050620009df565b8381111562000a0c576000848401525b50505050565b6000600282049050600182168062000a2b57607f821691505b6020821081141562000a425762000a4162000aad565b5b50919050565b62000a538262000b0b565b810181811067ffffffffffffffff8211171562000a755762000a7462000adc565b5b80604052505050565b7f4e487b7100000000000000000000000000000000000000000000000000000000600052601160045260246000fd5b7f4e487b7100000000000000000000000000000000000000000000000000000000600052602260045260246000fd5b7f4e487b7100000000000000000000000000000000000000000000000000000000600052604160045260246000fd5b6000601f19601f8301169050919050565b7f4552433732313a20746f6b656e20616c7265616479206d696e74656400000000600082015250565b7f697066733a2f2f00000000000000000000000000000000000000000000000000600082015250565b7f4552433732313a206d696e7420746f20746865207a65726f2061646472657373600082015250565b62000ba2816200099e565b811462000bae57600080fd5b50565b62000bbc81620009d2565b811462000bc857600080fd5b50565b6143ba8062000bdb6000396000f3fe60806040526004361061020f5760003560e01c806386dd83a311610118578063ab0bcc41116100a0578063e14ca3531161006f578063e14ca35314610752578063e69e04b31461077d578063e985e9c5146107a8578063eb685c47146107e5578063f2fde38b1461080e5761020f565b8063ab0bcc4114610698578063b88d4fde146106c3578063c3d6ee7f146106ec578063c87b56dd146107155761020f565b806395d89b41116100e757806395d89b41146105c55780639f181b5e146105f0578063a1e56fd91461061b578063a22cb46514610644578063aa3ec0a91461066d5761020f565b806386dd83a31461052c5780638ce26108146105555780638da5cb5b1461057e57806394bf804d146105a95761020f565b80633c5a159b1161019b5780635c474f9e1161016a5780635c474f9e1461045957806362a5af3b146104845780636352211e1461049b57806370a08231146104d8578063715018a6146105155761020f565b80633c5a159b146103b35780633ccfd60b146103f057806342842e0e146104075780634adcfc27146104305761020f565b8063095ea7b3116101e2578063095ea7b3146102e457806318160ddd1461030d57806323b872dd146103385780632bb0f76e146103615780632f181f541461038a5761020f565b806301ffc9a714610214578063054f7d9c1461025157806306fdde031461027c578063081812fc146102a7575b600080fd5b34801561022057600080fd5b5061023b60048036038101906102369190612e24565b610837565b60405161024891906135fb565b60405180910390f35b34801561025d57600080fd5b50610266610919565b60405161027391906135fb565b60405180910390f35b34801561028857600080fd5b5061029161092c565b60405161029e9190613616565b60405180910390f35b3480156102b357600080fd5b506102ce60048036038101906102c99190612fc6565b6109be565b6040516102db9190613594565b60405180910390f35b3480156102f057600080fd5b5061030b60048036038101906103069190612d94565b610a43565b005b34801561031957600080fd5b50610322610b5b565b60405161032f91906138f8565b60405180910390f35b34801561034457600080fd5b5061035f600480360381019061035a9190612c8e565b610b65565b005b34801561036d57600080fd5b5061038860048036038101906103839190612dd0565b610bc5565b005b34801561039657600080fd5b506103b160048036038101906103ac9190612fc6565b610cbd565b005b3480156103bf57600080fd5b506103da60048036038101906103d59190612fc6565b610dc2565b6040516103e791906138f8565b60405180910390f35b3480156103fc57600080fd5b50610405610dda565b005b34801561041357600080fd5b5061042e60048036038101906104299190612c8e565b610ea6565b005b34801561043c57600080fd5b5061045760048036038101906104529190612eb7565b610ec6565b005b34801561046557600080fd5b5061046e610f60565b60405161047b91906135fb565b60405180910390f35b34801561049057600080fd5b50610499610f6d565b005b3480156104a757600080fd5b506104c260048036038101906104bd9190612fc6565b611006565b6040516104cf9190613594565b60405180910390f35b3480156104e457600080fd5b506104ff60048036038101906104fa9190612c29565b6110b8565b60405161050c91906138f8565b60405180910390f35b34801561052157600080fd5b5061052a611170565b005b34801561053857600080fd5b50610553600480360381019061054e9190612f0b565b6111f8565b005b34801561056157600080fd5b5061057c60048036038101906105779190612e76565b6112d2565b005b34801561058a57600080fd5b5061059361135c565b6040516105a09190613594565b60405180910390f35b6105c360048036038101906105be9190612fef565b611386565b005b3480156105d157600080fd5b506105da6114a7565b6040516105e79190613616565b60405180910390f35b3480156105fc57600080fd5b50610605611539565b60405161061291906138f8565b60405180910390f35b34801561062757600080fd5b50610642600480360381019061063d9190612f5f565b61154a565b005b34801561065057600080fd5b5061066b60048036038101906106669190612d58565b611605565b005b34801561067957600080fd5b5061068261161b565b60405161068f9190613616565b60405180910390f35b3480156106a457600080fd5b506106ad6116a9565b6040516106ba91906138f8565b60405180910390f35b3480156106cf57600080fd5b506106ea60048036038101906106e59190612cdd565b6116b3565b005b3480156106f857600080fd5b50610713600480360381019061070e9190612e76565b611715565b005b34801561072157600080fd5b5061073c60048036038101906107379190612fc6565b6117ed565b6040516107499190613616565b60405180910390f35b34801561075e57600080fd5b5061076761186f565b60405161077491906138f8565b60405180910390f35b34801561078957600080fd5b50610792611890565b60405161079f91906138f8565b60405180910390f35b3480156107b457600080fd5b506107cf60048036038101906107ca9190612c52565b611896565b6040516107dc91906135fb565b60405180910390f35b3480156107f157600080fd5b5061080c6004803603810190610807919061302b565b61192a565b005b34801561081a57600080fd5b5061083560048036038101906108309190612c29565b6119c2565b005b60007f80ac58cd000000000000000000000000000000000000000000000000000000007bffffffffffffffffffffffffffffffffffffffffffffffffffffffff1916827bffffffffffffffffffffffffffffffffffffffffffffffffffffffff1916148061090257507f5b5e139f000000000000000000000000000000000000000000000000000000007bffffffffffffffffffffffffffffffffffffffffffffffffffffffff1916827bffffffffffffffffffffffffffffffffffffffffffffffffffffffff1916145b80610912575061091182611aba565b5b9050919050565b600960149054906101000a900460ff1681565b60606002805461093b90613b8f565b80601f016020809104026020016040519081016040528092919081815260200182805461096790613b8f565b80156109b45780601f10610989576101008083540402835291602001916109b4565b820191906000526020600020905b81548152906001019060200180831161099757829003601f168201915b5050505050905090565b60006109c982611b24565b610a08576040517f08c379a00000000000000000000000000000000000000000000000000000000081526004016109ff906137d8565b60405180910390fd5b6006600083815260200190815260200160002060009054906101000a900473ffffffffffffffffffffffffffffffffffffffff169050919050565b6000610a4e82611006565b90508073ffffffffffffffffffffffffffffffffffffffff168373ffffffffffffffffffffffffffffffffffffffff161415610abf576040517f08c379a0000000000000000000000000000000000000000000000000000000008152600401610ab690613878565b60405180910390fd5b8073ffffffffffffffffffffffffffffffffffffffff16610ade611b90565b73ffffffffffffffffffffffffffffffffffffffff161480610b0d5750610b0c81610b07611b90565b611896565b5b610b4c576040517f08c379a0000000000000000000000000000000000000000000000000000000008152600401610b4390613718565b60405180910390fd5b610b568383611b98565b505050565b6000600154905090565b610b76610b70611b90565b82611c51565b610bb5576040517f08c379a0000000000000000000000000000000000000000000000000000000008152600401610bac906138b8565b60405180910390fd5b610bc0838383611d2f565b505050565b610bcd611b90565b73ffffffffffffffffffffffffffffffffffffffff16610beb61135c565b73ffffffffffffffffffffffffffffffffffffffff1614610c41576040517f08c379a0000000000000000000000000000000000000000000000000000000008152600401610c38906137f8565b60405180910390fd5b60005b8251811015610cb85781600b6000858481518110610c8b577f4e487b7100000000000000000000000000000000000000000000000000000000600052603260045260246000fd5b60200260200101518152602001908152602001600020819055508080610cb090613bf2565b915050610c44565b505050565b610cc5611b90565b73ffffffffffffffffffffffffffffffffffffffff16610ce361135c565b73ffffffffffffffffffffffffffffffffffffffff1614610d39576040517f08c379a0000000000000000000000000000000000000000000000000000000008152600401610d30906137f8565b60405180910390fd5b610d41610f60565b15610d81576040517f08c379a0000000000000000000000000000000000000000000000000000000008152600401610d7890613798565b60405180910390fd5b80600c819055507fb751cc79e5d90c9173e2971809c6658fcf527209d16860326bfe7779a9169f0b81604051610db791906138f8565b60405180910390a150565b600b6020528060005260406000206000915090505481565b610de2611b90565b73ffffffffffffffffffffffffffffffffffffffff16610e0061135c565b73ffffffffffffffffffffffffffffffffffffffff1614610e56576040517f08c379a0000000000000000000000000000000000000000000000000000000008152600401610e4d906137f8565b60405180910390fd5b610e5e61135c565b73ffffffffffffffffffffffffffffffffffffffff166108fc479081150290604051600060405180830381858888f19350505050158015610ea3573d6000803e3d6000fd5b50565b610ec1838383604051806020016040528060008152506116b3565b505050565b610ece611b90565b73ffffffffffffffffffffffffffffffffffffffff16610eec61135c565b73ffffffffffffffffffffffffffffffffffffffff1614610f42576040517f08c379a0000000000000000000000000000000000000000000000000000000008152600401610f39906137f8565b60405180910390fd5b610f4b826112d2565b610f5c81610f57611f8b565b611fab565b5050565b600042600c541115905090565b610f75611b90565b73ffffffffffffffffffffffffffffffffffffffff16610f9361135c565b73ffffffffffffffffffffffffffffffffffffffff1614610fe9576040517f08c379a0000000000000000000000000000000000000000000000000000000008152600401610fe0906137f8565b60405180910390fd5b6001600960146101000a81548160ff021916908315150217905550565b6000806004600084815260200190815260200160002060009054906101000a900473ffffffffffffffffffffffffffffffffffffffff169050600073ffffffffffffffffffffffffffffffffffffffff168173ffffffffffffffffffffffffffffffffffffffff1614156110af576040517f08c379a00000000000000000000000000000000000000000000000000000000081526004016110a690613758565b60405180910390fd5b80915050919050565b60008073ffffffffffffffffffffffffffffffffffffffff168273ffffffffffffffffffffffffffffffffffffffff161415611129576040517f08c379a000000000000000000000000000000000000000000000000000000000815260040161112090613738565b60405180910390fd5b600560008373ffffffffffffffffffffffffffffffffffffffff1673ffffffffffffffffffffffffffffffffffffffff168152602001908152602001600020549050919050565b611178611b90565b73ffffffffffffffffffffffffffffffffffffffff1661119661135c565b73ffffffffffffffffffffffffffffffffffffffff16146111ec576040517f08c379a00000000000000000000000000000000000000000000000000000000081526004016111e3906137f8565b60405180910390fd5b6111f66000611fc9565b565b611200611b90565b73ffffffffffffffffffffffffffffffffffffffff1661121e61135c565b73ffffffffffffffffffffffffffffffffffffffff1614611274576040517f08c379a000000000000000000000000000000000000000000000000000000000815260040161126b906137f8565b60405180910390fd5b600960149054906101000a900460ff16156112c4576040517f08c379a00000000000000000000000000000000000000000000000000000000081526004016112bb906136f8565b60405180910390fd5b6112ce828261208f565b5050565b6112da611b90565b73ffffffffffffffffffffffffffffffffffffffff166112f861135c565b73ffffffffffffffffffffffffffffffffffffffff161461134e576040517f08c379a0000000000000000000000000000000000000000000000000000000008152600401611345906137f8565b60405180910390fd5b6113598160016111f8565b50565b6000600960009054906101000a900473ffffffffffffffffffffffffffffffffffffffff16905090565b8161138f610b5b565b81106113d0576040517f08c379a00000000000000000000000000000000000000000000000000000000081526004016113c790613778565b60405180910390fd5b82600080600b600084815260200190815260200160002054116113f557600a5461140a565b600b6000838152602001908152602001600020545b90508034101561144f576040517f08c379a000000000000000000000000000000000000000000000000000000000815260040161144690613898565b60405180910390fd5b611457610f60565b611496576040517f08c379a000000000000000000000000000000000000000000000000000000000815260040161148d90613858565b60405180910390fd5b6114a08486612133565b5050505050565b6060600380546114b690613b8f565b80601f01602080910402602001604051908101604052809291908181526020018280546114e290613b8f565b801561152f5780601f106115045761010080835404028352916020019161152f565b820191906000526020600020905b81548152906001019060200180831161151257829003601f168201915b5050505050905090565b60006115456000612301565b905090565b611552611b90565b73ffffffffffffffffffffffffffffffffffffffff1661157061135c565b73ffffffffffffffffffffffffffffffffffffffff16146115c6576040517f08c379a00000000000000000000000000000000000000000000000000000000081526004016115bd906137f8565b60405180910390fd5b6115d083836111f8565b60005b828110156115ff576115ec826115e7611f8b565b611fab565b80806115f790613bf2565b9150506115d3565b50505050565b611617611610611b90565b838361230f565b5050565b6008805461162890613b8f565b80601f016020809104026020016040519081016040528092919081815260200182805461165490613b8f565b80156116a15780601f10611676576101008083540402835291602001916116a1565b820191906000526020600020905b81548152906001019060200180831161168457829003601f168201915b505050505081565b6000600c54905090565b6116c46116be611b90565b83611c51565b611703576040517f08c379a00000000000000000000000000000000000000000000000000000000081526004016116fa906138b8565b60405180910390fd5b61170f8484848461247c565b50505050565b61171d611b90565b73ffffffffffffffffffffffffffffffffffffffff1661173b61135c565b73ffffffffffffffffffffffffffffffffffffffff1614611791576040517f08c379a0000000000000000000000000000000000000000000000000000000008152600401611788906137f8565b60405180910390fd5b600960149054906101000a900460ff16156117e1576040517f08c379a00000000000000000000000000000000000000000000000000000000081526004016117d8906136f8565b60405180910390fd5b6117ea816124d8565b50565b60606117f882611b24565b611837576040517f08c379a000000000000000000000000000000000000000000000000000000000815260040161182e90613838565b60405180910390fd5b61183f61253b565b61184883612563565b604051602001611859929190613538565b6040516020818303038152906040529050919050565b6000611879611539565b611881610b5b565b61188b9190613aa5565b905090565b600a5481565b6000600760008473ffffffffffffffffffffffffffffffffffffffff1673ffffffffffffffffffffffffffffffffffffffff16815260200190815260200160002060008373ffffffffffffffffffffffffffffffffffffffff1673ffffffffffffffffffffffffffffffffffffffff16815260200190815260200160002060009054906101000a900460ff16905092915050565b611932611b90565b73ffffffffffffffffffffffffffffffffffffffff1661195061135c565b73ffffffffffffffffffffffffffffffffffffffff16146119a6576040517f08c379a000000000000000000000000000000000000000000000000000000000815260040161199d906137f8565b60405180910390fd5b80600b6000848152602001908152602001600020819055505050565b6119ca611b90565b73ffffffffffffffffffffffffffffffffffffffff166119e861135c565b73ffffffffffffffffffffffffffffffffffffffff1614611a3e576040517f08c379a0000000000000000000000000000000000000000000000000000000008152600401611a35906137f8565b60405180910390fd5b600073ffffffffffffffffffffffffffffffffffffffff168173ffffffffffffffffffffffffffffffffffffffff161415611aae576040517f08c379a0000000000000000000000000000000000000000000000000000000008152600401611aa590613658565b60405180910390fd5b611ab781611fc9565b50565b60007f01ffc9a7000000000000000000000000000000000000000000000000000000007bffffffffffffffffffffffffffffffffffffffffffffffffffffffff1916827bffffffffffffffffffffffffffffffffffffffffffffffffffffffff1916149050919050565b60008073ffffffffffffffffffffffffffffffffffffffff166004600084815260200190815260200160002060009054906101000a900473ffffffffffffffffffffffffffffffffffffffff1673ffffffffffffffffffffffffffffffffffffffff1614159050919050565b600033905090565b816006600083815260200190815260200160002060006101000a81548173ffffffffffffffffffffffffffffffffffffffff021916908373ffffffffffffffffffffffffffffffffffffffff160217905550808273ffffffffffffffffffffffffffffffffffffffff16611c0b83611006565b73ffffffffffffffffffffffffffffffffffffffff167f8c5be1e5ebec7d5bd14f71427d1e84f3dd0314c0f7b2291e5b200ac8c7c3b92560405160405180910390a45050565b6000611c5c82611b24565b611c9b576040517f08c379a0000000000000000000000000000000000000000000000000000000008152600401611c92906136d8565b60405180910390fd5b6000611ca683611006565b90508073ffffffffffffffffffffffffffffffffffffffff168473ffffffffffffffffffffffffffffffffffffffff161480611d1557508373ffffffffffffffffffffffffffffffffffffffff16611cfd846109be565b73ffffffffffffffffffffffffffffffffffffffff16145b80611d265750611d258185611896565b5b91505092915050565b8273ffffffffffffffffffffffffffffffffffffffff16611d4f82611006565b73ffffffffffffffffffffffffffffffffffffffff1614611da5576040517f08c379a0000000000000000000000000000000000000000000000000000000008152600401611d9c90613818565b60405180910390fd5b600073ffffffffffffffffffffffffffffffffffffffff168273ffffffffffffffffffffffffffffffffffffffff161415611e15576040517f08c379a0000000000000000000000000000000000000000000000000000000008152600401611e0c90613698565b60405180910390fd5b611e20838383612710565b611e2b600082611b98565b6001600560008573ffffffffffffffffffffffffffffffffffffffff1673ffffffffffffffffffffffffffffffffffffffff1681526020019081526020016000206000828254611e7b9190613aa5565b925050819055506001600560008473ffffffffffffffffffffffffffffffffffffffff1673ffffffffffffffffffffffffffffffffffffffff1681526020019081526020016000206000828254611ed29190613a1e565b92505081905550816004600083815260200190815260200160002060006101000a81548173ffffffffffffffffffffffffffffffffffffffff021916908373ffffffffffffffffffffffffffffffffffffffff160217905550808273ffffffffffffffffffffffffffffffffffffffff168473ffffffffffffffffffffffffffffffffffffffff167fddf252ad1be2c89b69c2b068fc378daa952ba7f163c4a11628f55a4df523b3ef60405160405180910390a4505050565b600080611f986000612301565b9050611fa46000612715565b8091505090565b611fc582826040518060200160405280600081525061272b565b5050565b6000600960009054906101000a900473ffffffffffffffffffffffffffffffffffffffff16905081600960006101000a81548173ffffffffffffffffffffffffffffffffffffffff021916908373ffffffffffffffffffffffffffffffffffffffff1602179055508173ffffffffffffffffffffffffffffffffffffffff168173ffffffffffffffffffffffffffffffffffffffff167f8be0079c531659141344cd1fd0a4f28419497f9722a3daafe3b4186f6b6457e060405160405180910390a35050565b612097611b90565b73ffffffffffffffffffffffffffffffffffffffff166120b561135c565b73ffffffffffffffffffffffffffffffffffffffff161461210b576040517f08c379a0000000000000000000000000000000000000000000000000000000008152600401612102906137f8565b60405180910390fd5b612114826124d8565b61212f81612120610b5b565b61212a9190613a1e565b612786565b5050565b600073ffffffffffffffffffffffffffffffffffffffff168273ffffffffffffffffffffffffffffffffffffffff1614156121a3576040517f08c379a000000000000000000000000000000000000000000000000000000000815260040161219a906137b8565b60405180910390fd5b6121ac81611b24565b156121ec576040517f08c379a00000000000000000000000000000000000000000000000000000000081526004016121e390613678565b60405180910390fd5b6121f860008383612710565b6001600560008473ffffffffffffffffffffffffffffffffffffffff1673ffffffffffffffffffffffffffffffffffffffff16815260200190815260200160002060008282546122489190613a1e565b92505081905550816004600083815260200190815260200160002060006101000a81548173ffffffffffffffffffffffffffffffffffffffff021916908373ffffffffffffffffffffffffffffffffffffffff160217905550808273ffffffffffffffffffffffffffffffffffffffff16600073ffffffffffffffffffffffffffffffffffffffff167fddf252ad1be2c89b69c2b068fc378daa952ba7f163c4a11628f55a4df523b3ef60405160405180910390a45050565b600081600001549050919050565b8173ffffffffffffffffffffffffffffffffffffffff168373ffffffffffffffffffffffffffffffffffffffff16141561237e576040517f08c379a0000000000000000000000000000000000000000000000000000000008152600401612375906136b8565b60405180910390fd5b80600760008573ffffffffffffffffffffffffffffffffffffffff1673ffffffffffffffffffffffffffffffffffffffff16815260200190815260200160002060008473ffffffffffffffffffffffffffffffffffffffff1673ffffffffffffffffffffffffffffffffffffffff16815260200190815260200160002060006101000a81548160ff0219169083151502179055508173ffffffffffffffffffffffffffffffffffffffff168373ffffffffffffffffffffffffffffffffffffffff167f17307eab39ab6107e8899845ad3d59bd9653f200f220920489ca2b5937696c318360405161246f91906135fb565b60405180910390a3505050565b612487848484611d2f565b6124938484848461280d565b6124d2576040517f08c379a00000000000000000000000000000000000000000000000000000000081526004016124c990613638565b60405180910390fd5b50505050565b80600890805190602001906124ee9291906129b7565b506124f761253b565b6040516125049190613521565b60405180910390207f7d54a9964a6e80cd8847f2d2f9089adad79dfe2945af7128f5b673e67c319d2360405160405180910390a250565b6060600860405160200161254f9190613572565b604051602081830303815290604052905090565b606060008214156125ab576040518060400160405280600181526020017f3000000000000000000000000000000000000000000000000000000000000000815250905061270b565b600082905060005b600082146125dd5780806125c690613bf2565b915050600a826125d69190613a74565b91506125b3565b60008167ffffffffffffffff81111561261f577f4e487b7100000000000000000000000000000000000000000000000000000000600052604160045260246000fd5b6040519080825280601f01601f1916602001820160405280156126515781602001600182028036833780820191505090505b5090505b600085146127045760018261266a9190613aa5565b9150600a856126799190613c3b565b60306126859190613a1e565b60f81b8183815181106126c1577f4e487b7100000000000000000000000000000000000000000000000000000000600052603260045260246000fd5b60200101907effffffffffffffffffffffffffffffffffffffffffffffffffffffffffffff1916908160001a905350600a856126fd9190613a74565b9450612655565b8093505050505b919050565b505050565b6001816000016000828254019250508190555050565b6127358383612133565b612742600084848461280d565b612781576040517f08c379a000000000000000000000000000000000000000000000000000000000815260040161277890613638565b60405180910390fd5b505050565b61278e611539565b81116127cf576040517f08c379a00000000000000000000000000000000000000000000000000000000081526004016127c6906138d8565b60405180910390fd5b806001819055506127de610b5b565b7ff71f9c3841c0bab7774017ffe585aeab36b5438d148506067901d47c5fa6f7e960405160405180910390a250565b600061282e8473ffffffffffffffffffffffffffffffffffffffff166129a4565b15612997578373ffffffffffffffffffffffffffffffffffffffff1663150b7a02612857611b90565b8786866040518563ffffffff1660e01b815260040161287994939291906135af565b602060405180830381600087803b15801561289357600080fd5b505af19250505080156128c457506040513d601f19601f820116820180604052508101906128c19190612e4d565b60015b612947573d80600081146128f4576040519150601f19603f3d011682016040523d82523d6000602084013e6128f9565b606091505b5060008151141561293f576040517f08c379a000000000000000000000000000000000000000000000000000000000815260040161293690613638565b60405180910390fd5b805181602001fd5b63150b7a0260e01b7bffffffffffffffffffffffffffffffffffffffffffffffffffffffff1916817bffffffffffffffffffffffffffffffffffffffffffffffffffffffff19161491505061299c565b600190505b949350505050565b600080823b905060008111915050919050565b8280546129c390613b8f565b90600052602060002090601f0160209004810192826129e55760008555612a2c565b82601f106129fe57805160ff1916838001178555612a2c565b82800160010185558215612a2c579182015b82811115612a2b578251825591602001919060010190612a10565b5b509050612a399190612a3d565b5090565b5b80821115612a56576000816000905550600101612a3e565b5090565b6000612a6d612a6884613938565b613913565b90508083825260208201905082856020860282011115612a8c57600080fd5b60005b85811015612abc5781612aa28882612c14565b845260208401935060208301925050600181019050612a8f565b5050509392505050565b6000612ad9612ad484613964565b613913565b905082815260208101848484011115612af157600080fd5b612afc848285613b4d565b509392505050565b6000612b17612b1284613995565b613913565b905082815260208101848484011115612b2f57600080fd5b612b3a848285613b4d565b509392505050565b600081359050612b5181614328565b92915050565b600082601f830112612b6857600080fd5b8135612b78848260208601612a5a565b91505092915050565b600081359050612b908161433f565b92915050565b600081359050612ba581614356565b92915050565b600081519050612bba81614356565b92915050565b600082601f830112612bd157600080fd5b8135612be1848260208601612ac6565b91505092915050565b600082601f830112612bfb57600080fd5b8135612c0b848260208601612b04565b91505092915050565b600081359050612c238161436d565b92915050565b600060208284031215612c3b57600080fd5b6000612c4984828501612b42565b91505092915050565b60008060408385031215612c6557600080fd5b6000612c7385828601612b42565b9250506020612c8485828601612b42565b9150509250929050565b600080600060608486031215612ca357600080fd5b6000612cb186828701612b42565b9350506020612cc286828701612b42565b9250506040612cd386828701612c14565b9150509250925092565b60008060008060808587031215612cf357600080fd5b6000612d0187828801612b42565b9450506020612d1287828801612b42565b9350506040612d2387828801612c14565b925050606085013567ffffffffffffffff811115612d4057600080fd5b612d4c87828801612bc0565b91505092959194509250565b60008060408385031215612d6b57600080fd5b6000612d7985828601612b42565b9250506020612d8a85828601612b81565b9150509250929050565b60008060408385031215612da757600080fd5b6000612db585828601612b42565b9250506020612dc685828601612c14565b9150509250929050565b60008060408385031215612de357600080fd5b600083013567ffffffffffffffff811115612dfd57600080fd5b612e0985828601612b57565b9250506020612e1a85828601612c14565b9150509250929050565b600060208284031215612e3657600080fd5b6000612e4484828501612b96565b91505092915050565b600060208284031215612e5f57600080fd5b6000612e6d84828501612bab565b91505092915050565b600060208284031215612e8857600080fd5b600082013567ffffffffffffffff811115612ea257600080fd5b612eae84828501612bea565b91505092915050565b60008060408385031215612eca57600080fd5b600083013567ffffffffffffffff811115612ee457600080fd5b612ef085828601612bea565b9250506020612f0185828601612b42565b9150509250929050565b60008060408385031215612f1e57600080fd5b600083013567ffffffffffffffff811115612f3857600080fd5b612f4485828601612bea565b9250506020612f5585828601612c14565b9150509250929050565b600080600060608486031215612f7457600080fd5b600084013567ffffffffffffffff811115612f8e57600080fd5b612f9a86828701612bea565b9350506020612fab86828701612c14565b9250506040612fbc86828701612b42565b9150509250925092565b600060208284031215612fd857600080fd5b6000612fe684828501612c14565b91505092915050565b6000806040838503121561300257600080fd5b600061301085828601612c14565b925050602061302185828601612b42565b9150509250929050565b6000806040838503121561303e57600080fd5b600061304c85828601612c14565b925050602061305d85828601612c14565b9150509250929050565b61307081613ad9565b82525050565b61307f81613aeb565b82525050565b6000613090826139db565b61309a81856139f1565b93506130aa818560208601613b5c565b6130b381613d28565b840191505092915050565b60006130c9826139e6565b6130d38185613a02565b93506130e3818560208601613b5c565b6130ec81613d28565b840191505092915050565b6000613102826139e6565b61310c8185613a13565b935061311c818560208601613b5c565b80840191505092915050565b6000815461313581613b8f565b61313f8186613a13565b9450600182166000811461315a576001811461316b5761319e565b60ff1983168652818601935061319e565b613174856139c6565b60005b8381101561319657815481890152600182019150602081019050613177565b838801955050505b50505092915050565b60006131b4603283613a02565b91506131bf82613d39565b604082019050919050565b60006131d7602683613a02565b91506131e282613d88565b604082019050919050565b60006131fa601c83613a02565b915061320582613dd7565b602082019050919050565b600061321d600e83613a13565b915061322882613e00565b600e82019050919050565b6000613240602483613a02565b915061324b82613e29565b604082019050919050565b6000613263601983613a02565b915061326e82613e78565b602082019050919050565b6000613286602c83613a02565b915061329182613ea1565b604082019050919050565b60006132a9601783613a02565b91506132b482613ef0565b602082019050919050565b60006132cc600783613a13565b91506132d782613f19565b600782019050919050565b60006132ef603883613a02565b91506132fa82613f42565b604082019050919050565b6000613312602a83613a02565b915061331d82613f91565b604082019050919050565b6000613335602983613a02565b915061334082613fe0565b604082019050919050565b6000613358601b83613a02565b91506133638261402f565b602082019050919050565b600061337b601883613a02565b915061338682614058565b602082019050919050565b600061339e602083613a02565b91506133a982614081565b602082019050919050565b60006133c1602c83613a02565b91506133cc826140aa565b604082019050919050565b60006133e4602083613a02565b91506133ef826140f9565b602082019050919050565b6000613407602983613a02565b915061341282614122565b604082019050919050565b600061342a602f83613a02565b915061343582614171565b604082019050919050565b600061344d601783613a02565b9150613458826141c0565b602082019050919050565b6000613470602183613a02565b915061347b826141e9565b604082019050919050565b6000613493600e83613a02565b915061349e82614238565b602082019050919050565b60006134b6603183613a02565b91506134c182614261565b604082019050919050565b60006134d9603983613a02565b91506134e4826142b0565b604082019050919050565b60006134fc600183613a13565b9150613507826142ff565b600182019050919050565b61351b81613b43565b82525050565b600061352d82846130f7565b915081905092915050565b600061354482856130f7565b915061354f826134ef565b915061355b82846130f7565b915061356682613210565b91508190509392505050565b600061357d826132bf565b91506135898284613128565b915081905092915050565b60006020820190506135a96000830184613067565b92915050565b60006080820190506135c46000830187613067565b6135d16020830186613067565b6135de6040830185613512565b81810360608301526135f08184613085565b905095945050505050565b60006020820190506136106000830184613076565b92915050565b6000602082019050818103600083015261363081846130be565b905092915050565b60006020820190508181036000830152613651816131a7565b9050919050565b60006020820190508181036000830152613671816131ca565b9050919050565b60006020820190508181036000830152613691816131ed565b9050919050565b600060208201905081810360008301526136b181613233565b9050919050565b600060208201905081810360008301526136d181613256565b9050919050565b600060208201905081810360008301526136f181613279565b9050919050565b600060208201905081810360008301526137118161329c565b9050919050565b60006020820190508181036000830152613731816132e2565b9050919050565b6000602082019050818103600083015261375181613305565b9050919050565b6000602082019050818103600083015261377181613328565b9050919050565b600060208201905081810360008301526137918161334b565b9050919050565b600060208201905081810360008301526137b18161336e565b9050919050565b600060208201905081810360008301526137d181613391565b9050919050565b600060208201905081810360008301526137f1816133b4565b9050919050565b60006020820190508181036000830152613811816133d7565b9050919050565b60006020820190508181036000830152613831816133fa565b9050919050565b600060208201905081810360008301526138518161341d565b9050919050565b6000602082019050818103600083015261387181613440565b9050919050565b6000602082019050818103600083015261389181613463565b9050919050565b600060208201905081810360008301526138b181613486565b9050919050565b600060208201905081810360008301526138d1816134a9565b9050919050565b600060208201905081810360008301526138f1816134cc565b9050919050565b600060208201905061390d6000830184613512565b92915050565b600061391d61392e565b90506139298282613bc1565b919050565b6000604051905090565b600067ffffffffffffffff82111561395357613952613cf9565b5b602082029050602081019050919050565b600067ffffffffffffffff82111561397f5761397e613cf9565b5b61398882613d28565b9050602081019050919050565b600067ffffffffffffffff8211156139b0576139af613cf9565b5b6139b982613d28565b9050602081019050919050565b60008190508160005260206000209050919050565b600081519050919050565b600081519050919050565b600082825260208201905092915050565b600082825260208201905092915050565b600081905092915050565b6000613a2982613b43565b9150613a3483613b43565b9250827fffffffffffffffffffffffffffffffffffffffffffffffffffffffffffffffff03821115613a6957613a68613c6c565b5b828201905092915050565b6000613a7f82613b43565b9150613a8a83613b43565b925082613a9a57613a99613c9b565b5b828204905092915050565b6000613ab082613b43565b9150613abb83613b43565b925082821015613ace57613acd613c6c565b5b828203905092915050565b6000613ae482613b23565b9050919050565b60008115159050919050565b60007fffffffff0000000000000000000000000000000000000000000000000000000082169050919050565b600073ffffffffffffffffffffffffffffffffffffffff82169050919050565b6000819050919050565b82818337600083830152505050565b60005b83811015613b7a578082015181840152602081019050613b5f565b83811115613b89576000848401525b50505050565b60006002820490506001821680613ba757607f821691505b60208210811415613bbb57613bba613cca565b5b50919050565b613bca82613d28565b810181811067ffffffffffffffff82111715613be957613be8613cf9565b5b80604052505050565b6000613bfd82613b43565b91507fffffffffffffffffffffffffffffffffffffffffffffffffffffffffffffffff821415613c3057613c2f613c6c565b5b600182019050919050565b6000613c4682613b43565b9150613c5183613b43565b925082613c6157613c60613c9b565b5b828206905092915050565b7f4e487b7100000000000000000000000000000000000000000000000000000000600052601160045260246000fd5b7f4e487b7100000000000000000000000000000000000000000000000000000000600052601260045260246000fd5b7f4e487b7100000000000000000000000000000000000000000000000000000000600052602260045260246000fd5b7f4e487b7100000000000000000000000000000000000000000000000000000000600052604160045260246000fd5b6000601f19601f8301169050919050565b7f4552433732313a207472616e7366657220746f206e6f6e20455243373231526560008201527f63656976657220696d706c656d656e7465720000000000000000000000000000602082015250565b7f4f776e61626c653a206e6577206f776e657220697320746865207a65726f206160008201527f6464726573730000000000000000000000000000000000000000000000000000602082015250565b7f4552433732313a20746f6b656e20616c7265616479206d696e74656400000000600082015250565b7f2f6d657461646174612e6a736f6e000000000000000000000000000000000000600082015250565b7f4552433732313a207472616e7366657220746f20746865207a65726f2061646460008201527f7265737300000000000000000000000000000000000000000000000000000000602082015250565b7f4552433732313a20617070726f766520746f2063616c6c657200000000000000600082015250565b7f4552433732313a206f70657261746f7220717565727920666f72206e6f6e657860008201527f697374656e7420746f6b656e0000000000000000000000000000000000000000602082015250565b7f4d6574616461746120616c72656164792066726f7a656e000000000000000000600082015250565b7f697066733a2f2f00000000000000000000000000000000000000000000000000600082015250565b7f4552433732313a20617070726f76652063616c6c6572206973206e6f74206f7760008201527f6e6572206e6f7220617070726f76656420666f7220616c6c0000000000000000602082015250565b7f4552433732313a2062616c616e636520717565727920666f7220746865207a6560008201527f726f206164647265737300000000000000000000000000000000000000000000602082015250565b7f4552433732313a206f776e657220717565727920666f72206e6f6e657869737460008201527f656e7420746f6b656e0000000000000000000000000000000000000000000000602082015250565b7f546f6b656e206e6f7420617661696c61626c6520746f206d696e740000000000600082015250565b7f53616c652068617320616c726561647920737461727465640000000000000000600082015250565b7f4552433732313a206d696e7420746f20746865207a65726f2061646472657373600082015250565b7f4552433732313a20617070726f76656420717565727920666f72206e6f6e657860008201527f697374656e7420746f6b656e0000000000000000000000000000000000000000602082015250565b7f4f776e61626c653a2063616c6c6572206973206e6f7420746865206f776e6572600082015250565b7f4552433732313a207472616e73666572206f6620746f6b656e2074686174206960008201527f73206e6f74206f776e0000000000000000000000000000000000000000000000602082015250565b7f4552433732314d657461646174613a2055524920717565727920666f72206e6f60008201527f6e6578697374656e7420746f6b656e0000000000000000000000000000000000602082015250565b7f53616c65206861736e2774207374617274656420796574000000000000000000600082015250565b7f4552433732313a20617070726f76616c20746f2063757272656e74206f776e6560008201527f7200000000000000000000000000000000000000000000000000000000000000602082015250565b7f5061792075702c20667269656e64000000000000000000000000000000000000600082015250565b7f4552433732313a207472616e736665722063616c6c6572206973206e6f74206f60008201527f776e6572206e6f7220617070726f766564000000000000000000000000000000602082015250565b7f43616e2774207365742074686520737570706c7920746f206c6573732074686160008201527f6e207468652063757272656e7420746f6b656e20636f756e7400000000000000602082015250565b7f2f00000000000000000000000000000000000000000000000000000000000000600082015250565b61433181613ad9565b811461433c57600080fd5b50565b61434881613aeb565b811461435357600080fd5b50565b61435f81613af7565b811461436a57600080fd5b50565b61437681613b43565b811461438157600080fd5b5056fea264697066735822122053b8207f6d0456a3c371d50fef93e2b738c6c0fc18c1b38771aa28f80641ad1764736f6c63430008040033",
  "linkReferences": {},
  "deployedLinkReferences": {}
}